:020000041000EA
:1000000000B5324B212058609868022188439860DF
:10001000D860186158612E4B002199600221596106
:100020000121F02299502B49196001219960352056
:1000300000F044F80222904214D00621196600F024
:1000400034F8196E01211966002018661A6600F04E
:100050002CF8196E196E196E052000F02FF8012189
:100060000842F9D1002199601B49196000215960AB
:100070001A491B48016001219960EB211966A021F2
:10008000196600F012F800219960164914480160C1
:100090000121996001BC002800D000471248134993
:1000A000086003C880F30888084703B5996A0420EC
:1000B0000142FBD001200142F8D103BD02B5186610
:1000C0001866FFF7F2FF186E186E02BD00000240BE
:1000D000000000180000070000035F00212200005C
:1000E000F4000018222000A00001001008ED00E03C
:1000F00000000000000000000000000074B24E7A12
:1001000000200420F7010010C3010010C5010010F9
:10011000C1010010C1010010C1010010C101001097
:10012000C1010010C1010010C1010010C701001081
:10013000C1010010C1010010C9010010CB01001065
:10014000CD010010CD010010CD010010CD01001037
:10015000CD010010CD010010CD010010CD01001027
:10016000CD010010CD010010CD010010CD01001017
:10017000CD010010CD010010CD010010CD01001007
:10018000CD010010CD010010CD010010CD010010F7
:10019000CD010010CD010010CD010010CD010010E7
:1001A000CD010010CD010010CD010010CD010010D7
:1001B000CD010010CD010010CD010010CD010010C7
:1001C00000BE00BE00BE00BE00BE00BEEFF3058054
:1001D000103800BEF2EB88719C360210C436021053
:1001E0003402001090A31AE700201F49086006C8D7
:1001F00081F3088810471D48006800282FD10DA4FE
:100200000ECC002902D000F012F8F9E71849194A7B
:10021000002000E001C19142FCD1174988471749ED
:1002200088471749884700BEFDE701C901C29A42C5
:10023000FBD37047C4360210C00000209C40002051
:10024000A07602100000042000000420A076021016
:10025000001004200010042000000000704709482E
:1002600005F076FE0047000008ED00E0000000D039
:10027000A0400020E8A3022015460010350300101E
:100280003D4700105756000006005250ABB3605374
:100290001414021006005250861C0302241402108B
:1002A000060052505422A29D3414021005005250F0
:1002B000DE65F468A0760210F8B5C0460648074926
:1002C000091A8B10C90FC91810B5491003D0044B77
:1002D000002B00D0984710BD9C4000209C4000207F
:1002E00000000000054B10B5002B03D00449054861
:1002F00000E000BFFFF7E2FF10BDC04600000000B5
:10030000F0990020300C021000B585B003AB0193CA
:10031000FA220123054900935200002304480CF0FF
:10032000D7FB0CF0E3FB05B000BDC046300C02105B
:100330007103001010B507F027FE094807F02CFEE6
:10034000FA20C00003F0A6FA064807F069FC064947
:10035000064807F00DFEFFF7D7FF002010BDC0468E
:10036000D00E00203C0C0210400C02104C0C02106D
:1003700010B5264C1921A54404A800F055FD0CA881
:1003800000F032FE12230293053B0193013B02224F
:10039000002100930CA8093B00F03AFE13230293BE
:1003A000083B0193013B0422012100930CA8053B6B
:1003B00000F02EFE164B174A17490CA800F05CFE01
:1003C000012216490CA800F0A5FC28A801F01AFA91
:1003D0000CA928A801F03AFA0122114928A800F036
:1003E00099FC01F0F9FE04002FA902F00FF9192180
:1003F000200001F069FF23680322200009499B685F
:10040000984709480CF0ECFDFBE7C046D8FBFFFF1E
:100410008FC2753EE3A59B3CCDCC0C3F640C021013
:100420006C0C0210780C0210102700007047C046B8
:10043000084A0300106810B5002809D09A008018F7
:100440004068002804D0026894680A001900A04798
:1004500010BDC046EC89002010B50400782107F0DB
:1004600013FB200010BDC04670B50C0005000D4800
:10047000160007F07DFD200002F03CFB0123D02296
:10048000A3401206200093620121002202F0BEFA6E
:100490002000A4002D1901220C21034B02F0C8FA00
:1004A0006E6070BD800C02103104001070B5094DF3
:1004B0002C68002C01D0200070BD782007F0E0FAF5
:1004C0000400054B7422002108C007F0CDFA2C600F
:1004D000F1E7C046EC89002050210210014B036077
:1004E0007047C046602102107047C04610B5040036
:1004F000024B0360FFF7F8FF200010BD74210210CB
:1005000010B50400044B0360FFF7EEFF200030211C
:1005100007F0BAFA200010BD74210210F0B5C646EB
:1005200000B5040003F0A2FA002936D0FA22002315
:10053000920005F0A5FD0500E06A002829D0281AE0
:1005400007F047F9011C184807F0E5F8061C208C55
:1005500007F03FF9011C301C07F0DDF880462061F0
:10056000606907F095F90022104B05F0C2FF060004
:1005700040460F0007F08CF902000B0030003900F4
:1005800005F090FF00220A4B05F0B3FF06F076F865
:100590006061E56280BCB846F0BDFA21890005F0D3
:1005A00031FD0500C8E7C04600606A47000008400A
:1005B0000000D03FF8B5CE464746040080B57948E4
:1005C00007F0D6FCD02212065568E3795268217AEA
:1005D000DD400123CA401D406D0013401D4322230E
:1005E000E35CE3181A0024321278AA4207D02833B9
:1005F0001B78AB4266D0C0BCB946B046F8BD2321DB
:10060000635C0133DAB25BB26354032B53DD238B9B
:10061000E1690133208C01311BB2E1611900834291
:1006200001D10021002323835F4807F0A1FC236848
:100630005E4ADB68934200D0B0E003F017FA00296D
:1006400000D19BE0FA220023920005F019FD8046BC
:10065000E06A00282AD04346181A07F0BAF8011CAD
:10066000534807F058F8061C208C07F0B2F8011C1C
:10067000301C07F050F881462061606907F008F9E6
:1006800000224C4B05F035FF060048460F0007F0EE
:10069000FFF802000B003000390005F003FF0022D4
:1006A000454B05F026FF05F0E9FF60614346E36234
:1006B00023230022E2542223E554631928331B78B4
:1006C000AB4298D12323E25C013A52B2E254D31CEC
:1006D00051DA218BE369013909B2013B2183E361DE
:1006E0004B1C03D1218C013909B22183334807F017
:1006F0003FFC23682D4ADB6893424BD103F0B6F9E7
:10070000002941D0FA220023920005F0B9FC80466E
:10071000E06A00282AD04346181A07F05AF8011C4C
:10072000234806F0F8FF061C208C07F052F8011C45
:10073000301C06F0F0FF81462061606907F0A8F8E0
:1007400000221C4B05F0D5FE060048460F0007F0BE
:100750009FF802000B003000390005F0A3FE0022D4
:10076000154B05F0C6FE05F089FF60614346E36264
:1007700023230022E2542223E5543CE7FA21890096
:1007800005F040FC804663E7FA21890005F03AFC59
:100790008046BDE7002120009847E9E701212000BD
:1007A000984785E7CC0C0210E80C02101D050010DC
:1007B00000606A47000008400000D03FFC0C0210B7
:1007C000F0B5D6464F4646460400C0B582B01E007E
:1007D0000AAB1B7817009A460BAB1B7888469946E4
:1007E000FFF77CFE394B012523600023E360236182
:1007F00063615B232362364B00201A685B68A58027
:10080000A3624B46A0712083E0616262E0620193C3
:1008100053463A00414600932E48330007F0A8FBA8
:100820002D4807F0FDF943466371534623724B464A
:100830004846E6716372A77102F05CF92B00607A9A
:10084000D026834036067362042102F0C7F8637A2B
:100850001907490F8A005218204992005018204960
:100860002B408C46013BDB030168DB0B63440B40F0
:1008700080214901084303601A4B2800D318FF2246
:100880001A611A68194390430860607902F032F9DE
:100890002A0063799A407262A07902F02BF9A37959
:1008A0009D407562FFF702FE2200E179FFF7DCFD53
:1008B000FFF7FCFD2200217AFFF7D6FD200002B0F1
:1008C000E0BCBA46B146A846F0BDC046742102104D
:1008D00084210210180D0210640D02100C00054056
:1008E0000000FFFF00000540F8B54746CE4680B542
:1008F0000F1CC160417A027190460A07520F9300A3
:100900009B18564A9B0001249E18002305000C40AA
:10091000381C191C994606F041FF002800D083E0DE
:10092000FE21381C890506F04FFF002837D0FE272E
:1009300042464B4B013CBF05E4039946EF60E40B94
:10094000002A3CD0474A94463268644414408022CE
:10095000520132431460687A0107490F8A00521825
:100960003E4992008C466244C00700D573E03C4982
:1009700010684340194080235B0113431960012331
:1009800019006A7938489140D02212065161A9793C
:100990008B40012193614A4607F0EAFA3AE0334975
:1009A000381C06F0CCFE06F03BFF4246013C030437
:1009B000E40381461B0CEF60E40B002AC2D1294AF4
:1009C00094463268644414408022520132431460D9
:1009D000687A0107490F8A005218204992008C4614
:1009E0006244C00734D41E49106843401940802334
:1009F0005B0113431960012319006A791A48914079
:100A0000D02212069161A9798B40002153614A4698
:100A100007F0AEFAE86806F03BFF02000B0014484E
:100A2000494607F0A5FA0FE04B462B610023EB6225
:100A30000C4B013C9C46E4033368E40B64441C40CB
:100A400080235B0133431C60C0BCB946B046F8BD8F
:100A500004491B04C8E703491B0489E70C0005404F
:100A6000FFFF00000000FFFF7C0D021000FF7F472A
:100A70008C0D0210C068704710B5040002F0F6FF3C
:100A800000290DD0FA220023920005F0F9FAE36A5A
:100A9000C01AFA280CD9002323610020606110BD20
:100AA000FA21890005F0AEFAE36AC01AFA28F2D8F2
:100AB0000021206906F072FE0028EED16069EEE7A1
:100AC00070B504001823C05E06F088FE051C208C5B
:100AD00006F07FFE011C281C06F01DFE06F0D8FE65
:100AE000034A044B05F005FD05F0C8FD70BDC04686
:100AF000182D4454FB21194010B5040002F0B6FF34
:100B000000290DD0FA220023920005F0B9FAE36A19
:100B1000C01AFA280CD9002323610020606110BD9F
:100B2000FA21890005F06EFAE36AC01AFA28F2D8B1
:100B30000021206906F032FE0028EED1606906F03F
:100B4000A7FE0022044B05F0B6FC044A044B05F056
:100B5000D0FC05F093FDE2E700004E40182D445410
:100B6000FB21194070B50400C069002901D00023A1
:100B7000E36106F033FE051C208C06F02AFE011C02
:100B8000281C06F0C8FD06F083FE034A034B05F05F
:100B9000B0FC05F073FD70BD182D4454FB211940C5
:100BA00010B50400024B0360FFF7A0FC200010BD4D
:100BB0009421021010B50400044B0360FFF796FC6B
:100BC00020004C2106F060FF200010BD942102108F
:100BD00030B5040083B006A807AD00782D780090EA
:100BE00001952000FFF7ECFD064BFE22200023605C
:100BF000002392052363A263E26322646364A36417
:100C000003B030BD9421021070B50400081C15001B
:100C100006F03EFE074A084B05F04DFC05F02EFDA0
:100C2000064906F08CFD0023257120636364A364EC
:100C300070BDC046182D4454FB211940000070427D
:100C40008163C26303647047F8B50400056BFFF766
:100C500013FF011C281C06F058FD616C051C06F0F2
:100C600057FDA16B061C281C06F069FDE16B071CF3
:100C7000301C06F064FD011C381C06F049FDA16C17
:100C8000071C281C06F041FD216C06F058FD011CD4
:100C9000381C06F03DFD0D49A564666406F03BFD79
:100CA000051C2000FFF7E6FE291C06F031FD00219F
:100CB000051C06F07BFD002800D000252000291C23
:100CC0002279FFF711FE281CF8BDC0460000A043A2
:100CD00010B5FFF723FC10BD4068704710B5002821
:100CE00002D003689B69984710BDC04610B5040048
:100CF0004068002803D00BF043FF0023636010BD61
:100D0000406810B5002802D00BF078FA10BD002022
:100D1000FCE7C046F0B5040083B008000D001600E3
:100D200027001FF01BF8083713281AD913222900AF
:100D3000380006F09FFE0023E37623682000DB697D
:100D400098470B4D231D0200019339002300280012
:100D500000960BF0BDFE013843425841C0B203B0CB
:100D6000F0BD421C2900380006F084FEE5E7C046CD
:100D7000DD0C0010024B0360002343607047C04647
:100D8000AC210210054B10B5040003604068002838
:100D900001D00BF0F5FE200010BDC046AC210210C2
:100DA0009620704710B50400044B0360FFF79EFFC8
:100DB0002000FFF7E7FF200010BDC046D42102103D
:100DC00010B50400064B0360FFF790FF2000FFF70B
:100DD000D9FF2000202106F057FE200010BDC0469C
:100DE000D421021070B504000E4806F019FF207FD0
:100DF00001F080FE0123227FD025934001262D069D
:100E00006B623200237FFA209A4040006A610CF046
:100E1000E7F83200237FFA209A404000AA610CF0E4
:100E2000DFF8EEE7A40D021070B504000D00FFF727
:100E3000A1FF024B20002577236070BDD421021052
:100E40008020C0007047C0460020704701207047D6
:100E50007047C0460D4B10B5036040330400C361BA
:100E6000006A002802D003685B689847606A00281F
:100E700002D003685B68984720001C3001F0FAFB41
:100E80002000FFF77FFF200010BDC046FC210210AC
:100E900010B5024806F0C4FE10BDC046B40D0210E5
:100EA00070B5040006480D0006F0BAFE12F0CCFD45
:100EB000020020002900034B283010F015FA70BD05
:100EC000D80D0210100E021010B528300EF076FE6C
:100ED00010BDC0467047C0460020704701207047D3
:100EE00010B5024806F09CFE10BDC046B40D0210BD
:100EF00010B50C300EF062FE10BDC04670B5040097
:100F000006480D0006F08CFE12F09EFD0200200047
:100F10002900034B0C3010F0E7F970BDD80D02101A
:100F2000100E02100F4B10B5036040330400C36174
:100F3000006A002802D003685B689847606A00284E
:100F400002D003685B68984720001C3001F092FBD8
:100F50002000FFF717FF2000702106F095FD20000C
:100F600010BDC046FC21021070B504000E4B1C3CA5
:100F70000500206A23604033E361002802D0036843
:100F80005B689847606A002802D003685B689847EE
:100F9000280001F06FFB2000FFF7F4FE2000702115
:100FA00006F072FD200070BDFC21021070B5040037
:100FB0000C4B1C3C0500206A23604033E361002891
:100FC00002D003685B689847606A002802D0036813
:100FD0005B689847280001F04DFB2000FFF7D2FE28
:100FE000200070BDFC21021010B50400FFF7C2FE06
:100FF00020001C3001F038FB044B200023604033FC
:10100000E36100232362636210BDC046FC2102102D
:10101000F0B557464E46DE464546E0B583B01F0064
:101020000CAB1B78050099460DAB1B7811489A460E
:101030000EAB1B780C0016009B4606F099FF012CA6
:1010400006D903B0F0BCBB46B246A946A046F0BDE7
:101050004C2006F015FD5B460193534680460093F5
:101060003A004B463100FFF7B3FD43460834A40075
:101070006351E6E7200E0210F8B504000B480D1C82
:10108000161C1F1C06F0CCFD206A002804D03B1C57
:10109000321C291CFFF7D4FD606A002804D03B1CD9
:1010A000321C291CFFF7CCFDF8BDC046380E0210DB
:1010B0000831890070B50D581E00141C002D0AD08F
:1010C0000021101C06F078FB002805D03200280013
:1010D000211CFFF799FD70BD0122610028007240BC
:1010E0004908FFF791FDF6E7F0B5040089B02848FC
:1010F00006F096FD20002C3012F020FC200002218A
:101100004C3012F085FA0225002600272000E36CFF
:1011100002211E605F6058302565656512F078FA1F
:101120002000A36D02211E605F604030E5652566EA
:1011300012F022FB174D00222900684606F018FF26
:101140006946206C12F0ECFA002817D06946124864
:1011500006F00EFF29000122684606F009FF206C08
:1011600069460C3012F0DCFA00280BD10B4806F06F
:1011700057FD02236364A36409B0F0BD074806F07D
:101180004FFDE7E76946044806F0F2FEF1E7C04686
:10119000580E02106C0E0210780E0210980E0210FB
:1011A000F0B5040083B011F017FE250000231B4AA0
:1011B00004F04EFF2035E0622868002622630028F4
:1011C00014D0FFF77DFC06F063FB154A154B05F0C4
:1011D00060F9E76CBF19386079602868FFF78CFC0C
:1011E00006F056FBA76DBF19386079600435082EEC
:1011F00006D0286808260028E3D10435082EF8D147
:1012000000F0EAFF23002200210000241C332C32CE
:101210002831009401F0FEF903B0F0BD00CA9A3BFA
:10122000182D4454FB21094010B504000C4806F069
:10123000F7FC0C4806F0F4FC2000FFF755FF206A8D
:10124000002801D0FFF700FD606A002801D0FFF7F9
:10125000FBFC2000FFF7A4FFC8200BF0C1FEEEE767
:10126000B80E0210CC0E0210012903D808318900F3
:10127000085870470020FCE78020C0007047C04637
:10128000006A10B5002804D003689B6A98470230B2
:1012900010BD0220FCE7C046006A10B5002804D04B
:1012A0000368DB6A9847013010BD0120FCE7C046A7
:1012B00010B50400054B03604033C3611C3001F0DE
:1012C000D9F92000FFF75EFD200010BD6822021052
:1012D00010B50400084B03604033C3611C3001F0BB
:1012E000C9F92000FFF74EFDE2212000890006F039
:1012F000CBFB200010BDC0466822021070B5040070
:10130000006A0D00002802D003681B6A984716483F
:1013100006F086FC0DF0D8FE020020002900134BD9
:1013200074300FF0E1FF002815D0114806F078FC6A
:10133000104806F075FC0CF077FAD0218900020005
:101340000D4B6018290010F003F8002807D00B4857
:1013500006F066FC70BD0A4806F062FCE8E7094842
:1013600006F05EFCF6E7C046E80E0210180F021009
:10137000280F0210600F0210940F0210A80F021025
:10138000480F0210CC0F021008B4024B9C461C38C8
:1013900008BC6047FD12001070B50400006A0D0023
:1013A000002802D003685B6A9847D0239B0029007D
:1013B000E0180EF06BFD70BD70B50400006A0D0002
:1013C00082B0002802D003681B6B98470E4806F0D5
:1013D00027FCD12320009B00E618310000221C309E
:1013E00001F060F9D422D021002092008900074B3F
:1013F000A21861180190009628000FF09FFC2800A9
:101400000FF0B0FE02B070BDE80F02107926001098
:10141000F0B50A684B684546DE464E465746E0B58D
:101420008C6ACD6A97B081460094019595488846AC
:1014300006F09EFD02F01AFB002900D1F3E0FA222B
:101440000023920004F01CFEE0234A469B00D0508B
:1014500043461C685D68136A20009A4600220023F8
:10146000290005F089F8002800D0E1E04346002279
:101470009E6ADF6A00233000390005F07DF80028FD
:1014800036D020002900804A804B05F014F8804AAD
:10149000804B05F02EF80022002304000D0005F01B
:1014A00073F8002800D0E4E0002301279B462900C0
:1014B000200005F0E3F85B46021C0021061C5046A4
:1014C000FFF7F6FD4B46321C186A01213B00FFF77F
:1014D000EFFD434670481A685B680094019506F07A
:1014E00047FD17B0F0BCBB46B246A946A046F0BDCA
:1014F0007B00674A59083000664B04F0DCFF0200AD
:101500000B00089009912000290004F0D4FF604AE4
:10151000604B1490159104F0CEFF604A604B0A9026
:101520000B9104F0BFFF5A4A5A4B04F0E2FF089AAD
:10153000099B04F0DEFF594A0C900D910A980B9913
:10154000574B04F0A6FF524A524B04F0D2FF089AC0
:10155000099B04F0CEFF4C4A0E900F910C980D9908
:101560004A4B04F0A8FF4A4A4A4B04F0C2FF464ADD
:10157000109011910E980F99444B04F09CFF444A2F
:10158000444B04F0B6FF0022129013910023200078
:10159000290005F007F800220023002856D030006B
:1015A000390004F0FFFF002856D01298139905F077
:1015B00065F80021021C00235046FFF779FD1098C2
:1015C000119905F05BF84B46021C0121186A0123B2
:1015D000FFF76EFD129C139D434641461A685B68F7
:1015E00004940595109C119D029403952D488C6AD6
:1015F000CD6A0094019506F0BBFC0E9B0F9C2A4817
:10160000069307940C9B0D9C04930594089B099CDE
:1016100002930394149B159C009301940A9A0B9BCC
:1016200006F0A6FC5DE7FA21890004F0EBFC0BE76D
:101630005046012300220021FFF73AFD4B460022CD
:10164000186A01210023FFF733FD4AE73000390013
:1016500004F0A8FF0028A8D01098119905F00EF802
:101660000021021C00235046FFF722FD1298139917
:10167000A7E7802109066B181D00012300279B4660
:1016800015E7C046201002108A9F654D5723DA3FA8
:10169000182D4454FB21194038100210E926310856
:1016A000AC1CAA3F64100210A810021070B5040010
:1016B00009480E00150006F0B3FA236A002B04D087
:1016C000D1239B00E3189D4200D070BD3100200063
:1016D000FFF79EFEF9E7C046F410021010B50400B3
:1016E000054B1C3C23604033E36100F0C3FF200046
:1016F000FFF748FB200010BD6822021010B504005F
:10170000084B1C3C23604033E36100F0B3FF200032
:10171000FFF738FBE2212000890006F0B5F9200030
:1017200010BDC0466822021070B504000A480E00C1
:10173000150006F075FA200043681C38002B05D010
:10174000CA239B009C466444A54200D070BD310072
:10175000FFF75EFEFAE7C046F4100210406810B5CD
:10176000002804D003689B6A9847023010BD02200D
:10177000FCE7C046406810B5002804D00368DB6A67
:101780009847013010BD0120FCE7C04670B5040049
:1017900040680D00002802D003685B6A9847C9239F
:1017A0009B002900E0180EF071FB70BD70B50400BD
:1017B00040680D0082B0002802D003681B6B984778
:1017C0000E4806F02DFACA239B00E61831002000CF
:1017D000002200F067FFCD22C9210020920089007D
:1017E000074BA21861180190009628000FF0A6FA86
:1017F00028000FF0B7FC02B070BDC046E80F021021
:101800007926001010B50400FFF7B4FA20001C3050
:1018100000F02AFF0C4BE02223604033E3610023F9
:10182000920023622367A350002200232000A262BB
:10183000E36222636363A263E36322646364A2647A
:10184000E3642265636510BD68220210016270477F
:10185000F0B5CE464746804680B500218BB0006A81
:10186000FFF702FD0121FFF77DF906F011F843466D
:1018700004000D00186A0121FFF7F6FC0121FFF7B3
:1018800071F9614A614B81462900200004F031FE64
:10189000060048460F0005F0FBFF5B4A5B4B04F077
:1018A00028FE04000D0002000B003000390004F097
:1018B000F0FD0022564B04F01CFE80231B06320074
:1018C00002900391E91820003B0004F0E2FD514A28
:1018D000514B04F0F0FD04F077FF06000F0004F018
:1018E000EFFE029A039B0490059104F002FE009023
:1018F00001913000390004F0F9FE029A039B0400C4
:101900000D000694079504F0F4FD43460290039100
:101910009A6ADB6A0098019904F0C4FD03000C0088
:101920004146089309948B62CC620A6B4B6B029818
:10193000039904F0B7FD04000D00414632003B005E
:101940000C634D63886BC96B04F0ACFD4246334BAE
:101950009063D16304980599314A04F0CAFD089A4E
:10196000099B04F09FFD43462D4A1864596406986C
:1019700007992A4B04F0BDFD2B00220004F092FDD4
:1019800043469864D9641E655F6502F06FF80029CC
:1019900034D0FA220023920004F072FB81464346C1
:1019A000186F4B46181A04F011FE00221D4B04F06C
:1019B00082FD43464A4604000D001A6702000B00F0
:1019C0000098019904F077FD434622009865D96597
:1019D000029803992B0004F06EFD4346220018661E
:1019E00059662B003000390004F065FD43469866C7
:1019F000D9660BB0C0BCB946B046F0BDFA2189002B
:101A000004F000FB8146CAE7A4703D0AD7A3B03FAB
:101A10000000E03FE9263108AC1CCA3F9999B93F64
:101A20009A99999900408F40F0B5DE464546574651
:101A30004E46E0B5B3B014AA94465F238046634493
:101A40001B091B019B4611F0C7F90023DC4A04F077
:101A5000FFFA4346DA67424698679833106C516C38
:101A600018605960906CD16C9860D9604146002232
:101A7000086D496DD34B04F03CFD04000D0004F0EB
:101A80001FFE06000F002000290004F02FFE002298
:101A900000230890099104F02CFD002200230490FB
:101AA000059104F026FD04000D0002000B0030003B
:101AB000390004F0EEFC22002B0004F0EAFC049A4A
:101AC000059B04F0E6FC00220690079100233000FD
:101AD000390004F00EFD049A059B06000F0004F087
:101AE000E1FC049A059B0A900B9104F0DBFC2200B8
:101AF0002B0004F0CEFC0A9A0B9B0290039120006D
:101B0000290004F0CFFC049A059B04F0C2FC089A5B
:101B1000099B049005913000390004F0C3FC2200B9
:101B20002B0004F0BFFC22002B0004F0B2FC029E4C
:101B3000039F0890099132003B003000390004F007
:101B4000B1FC049C059D06000F0022002B00200024
:101B5000290004F0A7FC0A900B91089C099D220023
:101B60002B002000290004F09DFC320004000D0031
:101B7000069807993B0004F0BCFC0A9A0B9B0C905A
:101B80000D910698079904F0B4FC22002B000E90EA
:101B90000F910698079904F0ACFC32003B00029EBE
:101BA000039F069007913000390004F0A2FC0A9AC6
:101BB0000B9B109011913000390004F09AFC220028
:101BC00006000F00029803992B0004F092FC0A9A79
:101BD0000B9B129013910498059904F08AFC220043
:101BE0002B000A900B910498059904F082FC2200C6
:101BF0002B00149015910898099904F07AFC0400C0
:101C00000D0002000B000A980B9904F04BFC020037
:101C10000B0000206C4904F03CFC069A079B0290E4
:101C200003913000390004F034FC129A139B0490A5
:101C300005910E980F9904F035FC32003B00089096
:101C400009910698079904F02DFC22002B000690BC
:101C500007911098119904F025FC02000B00002058
:101C6000594904F016FC149E159F0C9A0D9B040014
:101C70000D003000390004F00CFC0E9A0F9B1490FC
:101C800015911298139904F004FC32003B000E9059
:101C90000F910C980D9904F005FC0A9A0B9B0C907F
:101CA0000D911098119904F0FDFB02000B0000202B
:101CB000454904F0EEFB029A039B06000F001692C2
:101CC00017930699079A189119920E990F9A1A91DB
:101CD0001B920499059A1C911D92089A099B0C98D5
:101CE0000D992292239320902191149815993200F6
:101CF000249025913B00200029001E941F952696D4
:101D0000279704F0CFFB029A039B04F0CBFB002241
:101D100000230A900B9104F045FC002800D003E159
:101D2000029803992B00220004F02EFC431E9841D8
:101D3000782243019B1814AA94466344703B1C68A4
:101D40005D68824632003B002000290004F01CFC44
:101D5000002800D0D3E053460321981C5F1C04F0F8
:101D600029F978227B019B1814AA94466344703B9E
:101D70001A685B68029203934B0104935346780000
:101D8000C019DB0099460B18DB000E934B005B1863
:101D9000FA18D2000A92524602265344DB005044FD
:101DA0009A46013AB2430332BE188A18F600C000C0
:101DB000FF00D2000C9606905F440892CE0005E02A
:101DC00000CA9A3B0000E03F0000F03F029A039BEC
:101DD0002000290004F05DFB16AA9446049BD94418
:101DE00063441A685B6804F054FB00226D4B04F0F6
:101DF00059FB04F04FFC00226B4B04000D0004F073
:101E000078FB4B462200186059602B000020664981
:101E100004F051FB16AB9C4604000D000A9B0E9982
:101E2000634461441A685B680868496804F031FBE0
:101E300022002B0004F05DFB5B469861D96116AB74
:101E40009C460C99069B614463441A685B68086869
:101E5000496804F027FB22002B0004F04AFB16AB74
:101E60009C46386079600899534461441A685B68FD
:101E70000868496804F016FB22002B0004F039FBC7
:101E80005B465E44306071601E685F689C68DD6818
:101E9000186959699A69DB69029203934346B03322
:101EA000186159610299039A9961DA6142461E608C
:101EB0005F609C60DD604133FF33906DD16D1860D1
:101EC0005960106E516E9860D9608623906ED16E05
:101ED0009B0043441860596000F07EF9002443469B
:101EE000424641461C3378327431009400F092FB34
:101EF00033B0F0BCBB46B246A946A046F0BD28238D
:101F00009A4610330893283B069320330C93183BD2
:101F10000A93103B0E9308339946103308265F4608
:101F20000024204D049351E700220A980B991D4B81
:101F300004F0B8FA04F0AEFB00221B4B04000D00C5
:101F400004F0D7FA2200029003912B0000201649DA
:101F500004F0B1FA149A159B04000D000C980D9929
:101F600004F097FA22002B0004F0C3FA0E9A0F9B9C
:101F700006000F000898099904F08BFA22002B0044
:101F80000894099504F0B5FA049A059B04000D0025
:101F90000698079904F07DFA089A099B04F0A9FABB
:101FA0007CE7C0460000F03F0000E03F10B50400B1
:101FB00078300DF02BF820002449803011F0B0FB70
:101FC000002834D0200022498C3011F0A9FB0028D1
:101FD00037D021000022002398310A604B608A60CC
:101FE000CB600A614B618A61CB610A624B628A6293
:101FF000CB620A634B635931FF310A604B608A60E0
:10200000CB608021890061180A604B6082218900C1
:1020100061180A604B608421890061180A604B6076
:10202000862189008C4664442260636010BD0948A3
:1020300005F0F6FD200006498C3011F071FB0028F8
:10204000C7D1044805F0ECFDC3E7C04620110210DB
:10205000501102102811021070B50400FFF7A6FFFE
:10206000264D15E0FA220023920004F009F8E0233F
:102070009B00E358C01A224B98421BD82000FFF760
:10208000E7FB2000FFF7D0FCFA2040000AF0A8FF91
:10209000236A002BF8D001F0E9FC0029E2D1FA21F3
:1020A000890003F0AFFFE0239B00E358C01A144BF4
:1020B0009842E3D901F0DAFC00291AD0FA22002371
:1020C000920003F0DDFFE0239B00E050206A00282F
:1020D0000AD0012300220021FEF7EAFF002300229C
:1020E0000121206AFEF7E4FF2800054905F040FFC2
:1020F000C4E7FA21890003F085FFE4E75C110210D0
:10210000DC0500008020C0007047C046074B10B5BA
:10211000036088235B000400C058002801D009F048
:102120007BF82000FEF72EFE200010BDD422021006
:102130000A4B10B5036088235B000400C0580028D8
:1021400001D009F069F82000FEF71CFE8C21200068
:10215000490005F099FC200010BDC046D4220210B1
:1021600070B5194D2C68002C0AD0210020000022E7
:1021700020311C300DF08CFD236A0133236270BDC9
:102180008C20400005F07CFC0400FEF7F3FD0F4BB3
:1021900084222360882600235200A3547600043250
:1021A000A350102100220A20A35108F0EFFDA051F6
:1021B000002804D0064805F033FD2C60D5E705481B
:1021C00005F02EFD2C60D0E7E8890020D422021013
:1021D000B01102108811021070B5154D2C68002C3A
:1021E00001D0200070BD8C20400005F049FC0400A7
:1021F000FEF7C0FD0F4B8422236088260023520087
:10220000A35476000432A350102100220A20A351C7
:1022100008F0BCFDA051002804D0074805F000FDDF
:102220002C60DEE7054805F0FBFC2C60D9E7C046D2
:10223000E8890020D4220210B01102108811021087
:1022400000B5154889B005F0EBFC03A80FF0FCF8C9
:10225000124B03A80393124B0493124B0593124B9A
:1022600006930FF005F9002811D0104805F0D8FCAE
:102270000F4805F0D5FC0F49012001910E490F4B85
:1022800000910F4A00210FF0DDFC09B000BDB32121
:102290000C4805F06DFEF8E7CC1102105127001034
:1022A0005927001061270010752700100012021036
:1022B00018120210F5260010DD260010D926001095
:1022C000D1260010D811021070B5842504006D00CD
:1022D0006155080000F00EFC01231900625D914079
:1022E000D02212065162615D8B40936170BDC04681
:1022F000F0B5D6464F4646460400C0B58EB002AD96
:10230000504805F08DFC28000FF0A8F8230030336A
:1023100007CD07C34C4806CD06C305F081FC0DF080
:1023200081F823006A4625002700260009903C33E7
:1023300003CB03C209A8626BA36B216B0DF074F889
:102340004435012109A830370DF03CF90022002165
:1023500009AB280000970EF031FF28363B4805F006
:102360005FFC2B003A4A3B4930000EF083FF3A48AD
:1023700005F056FC11F0D2FD020020003100374B71
:102380001C300EF0B1FF24239A46233B0193344BBB
:10239000A2440093290000235046324A0FF00CF863
:1023A00086235B00E0589946002848D003682A003D
:1023B00031009B6898474B46E05803685B69984733
:1023C000431C98464B46E05803681B699847260013
:1023D00078363B004246290030000EF021FC514681
:1023E00030000EF0E7FC86235B00E058002803D0A5
:1023F000036831009B6998471B4810F0FFFC0028D8
:1024000019D188267600A059002808D10DE00C9833
:102410000D9A03680B99DD690223A847A059002291
:102420000AA908F06BFE0128F1D00EB0E0BCBA4654
:10243000B146A846F0BD0D4805F0F2FBE1E70123E7
:102440009846C4E7341202105012021068120210AB
:10245000481B02107812021084120210A0120210FF
:102460006121001000CA9A3B88130000AC120210D0
:10247000F0B5DE464E46454657460400E0B55F4897
:102480008DB005F0CDFB02AD2000FFF7D9FE28008E
:102490000EF0E4FF2300303307CD07C306CD06C39B
:1024A0000023236278339846554B27000193554B00
:1024B00024379B461C2399463B00A1442600250057
:1024C0004F469946A04444362835012164200FF038
:1024D000D3FB84235B00E25C083BFF3B9340D022AC
:1024E0001206002877D120005361FFF701FF012178
:1024F00064200FF0C1FB002840D184235B00E25C24
:10250000083BFF3B9340D022120653614046002314
:102510003D4A0EF0BFFC88235B00E0580028E6D05F
:102520000623002208A9AA46009725001F0008F0EC
:10253000E5FD012819D10022099908980DF0A8FBA2
:1025400000284AD10A980B9A03680999DC69013F6F
:102550000023A047002F08D088235B000022E85802
:1025600008A908F0CBFD0128E5D0012164202C004A
:10257000009F55460FF080FB0028BED084235B00EF
:10258000E25C083BFF3B9340D02212069361584621
:1025900005F046FB30000CF0B5FE002110F044FCC5
:1025A000290038000DF00AFB48460DF09FFE8623F7
:1025B0005B00E058002804D0036832002900DB6883
:1025C000984740460EF08CFB28000DF079F930005A
:1025D0000EF026FE79E7936177E701000198009FEE
:1025E00005F0C6FC0A982C0003685546DB690B9A77
:1025F0009A4609990123D047C9E7C046C412021080
:10260000D4120210EC1202108096980086235B0010
:10261000C150704770B51C0088235B00C05815007E
:1026200084B0002814D0089B0091019203930022EB
:1026300000236946029408F0DFFB03000120012B10
:1026400007D023682900DE6920000123089AB047DB
:10265000002004B070BDC0467047C04600207047DF
:102660007047C0467047C046014B03607047C04684
:10267000FC2202107047C04670B50C0005000748E8
:1026800005F0CEFA2068064A03681B6A934200D11F
:1026900070BD220029009847FAE7C04600130210D7
:1026A0006526001005C1704710B50C0001F0DEF979
:1026B0000023064A03F0E4FC53019B1A9B009A187E
:1026C000D20020606160A260002010BD40420F0077
:1026D00010B505F09BFF10BD0120704710B5140028
:1026E000034B08001B6811009847200010BDC0462E
:1026F000E80E0020F8B5CE4647461E0080B590464D
:102700000D0001F0B3F93200F31712184B411F000E
:102710000E4B1600994608E04B46414628009B6840
:102720009847041E0ED107F021FF01F09FF98F4258
:10273000F2D801D18642EFD800242000C0BCB946AF
:10274000B046F8BD01200AF04BFCF6E7E80E002089
:1027500010B50AF02DFF10BD10B50AF0E7FF10BD4F
:1027600010B50C00002801D00AF0E0FF20000AF0AC
:102770001FFF10BD414370B508000D000AF018FF9F
:1027800004002A00002105F06FF9200070BDC0464A
:10279000D0231B061B688D4A9900F0B54E4689462A
:1027A00051585A4253412F2257464546DE465B4216
:1027B00093439846864BE0B59C4683B00027019131
:1027C000E044002935D0834B0F269B464246FB0848
:1027D00008339B009C5801233D009A460837002C83
:1027E0001ED031002140264214D05B464A469A58FA
:1027F0005346AB401A420DD1072208002A409200EE
:1028000090400200EB0874483C339B001A502800AB
:10281000019B984724090135002C01D0BD42E0D32B
:10282000202FD3D103B0F0BCBB46B246A946A04688
:10283000F0BD684B00210F229B460124CD082B00E0
:10284000404608339B001B5808000831002B00D17C
:102850009DE017001F40BC461A420BD05F464E4613
:10286000BE59270087403E4204D166465A4F3C3548
:10287000AD00EE511D0900D189E017002F402A421A
:1028800011D02600451CAE400195B4465D464E462B
:10289000AE5965462E4206D1019D4F4EED083C359E
:1028A0003F01AD00AF511D0A71D017002F402A42E1
:1028B00011D02600851CAE400195B4465D464E46BB
:1028C000AE5965462E4206D1019D434EED083C357A
:1028D0003F02AD00AF511D0B59D017002F402A42C7
:1028E0000AD02600C51CAE400195B4465D464E4652
:1028F000AE5965462E424ED01D0C48D017002F40D1
:10290000BC462A4209D00126071DBE40B2464E46AB
:10291000304DAD595646354245D01D0D37D01600C5
:102920002E40B4462A4209D00126471DBE40B24679
:102930004E46284DAD59564635423ED01D0E26D046
:1029400016002E40B4462A4210D00126871DBE40F4
:10295000B2464E461F4DAD595646354206D16646E3
:10296000FD083C3537061C4EAD00AF511B0F07303C
:10297000002B0CD04D465E467759250085402F42EE
:1029800005D1C008144D3C301B078000435120295D
:1029900000D053E746E7019D0F4EED083C353F035D
:1029A000AD00AF51A8E765462D04AC466646FF086A
:1029B0003C37BD00084FEE51AFE76646FD083C3599
:1029C0003705054EAD00AF51B8E7C046DC9000209A
:1029D00030410140D49C002000400140094A10B51C
:1029E00094464024830063441A68C00062408034E7
:1029F00014408022520113431C60034B9C466044E8
:102A0000416010BD04C0014000400140074B800000
:102A10009C4660440368C90092000A435A400C2354
:102A20001A4080235B0103431A60704704C00140D1
:102A3000F8B51D00D0231B061C6806006042444107
:102A40002F20644284432748F708844607203040FB
:102A5000800081403800244E3C3064448000BF0038
:102A60008151E419002A11D0802292012243116081
:102A70001C681E4EA400A359002B15D0002D25D094
:102A8000A55101210D2000F003F9F8BDC0229201EB
:102A9000224311601C68154EA400A359002B0CD0D2
:102AA000002D18D0A551F0E7002DEAD000220D200E
:102AB0000F49A55100F05AF9E3E7002DE5D00022B7
:102AC0000D200B49A55100F051F9DEE70D20084912
:102AD00000F046FAD4E70D20054900F041FAA5516F
:102AE000D3E7C0463041014000400140DC90002067
:102AF000912700100123D022834012069362936134
:102B0000094A40219446830063441A68C0004A4041
:102B1000803111408022520113431960034B9C46BF
:102B2000052360444360704704C0014000400140F9
:102B3000024B18688007C00F7047C04600C00640AF
:102B400070B5EFF3108C72B60D4D2B68002BFCD0D6
:102B5000BFF35F8F0724CB08C618C05C01230C406D
:102B6000A3401C000440034207D118433070BFF358
:102B70005F8F2C608CF3108870BD100001F0E2FDB7
:102B80002C0100D0F8B54746CE46884680B5EFF315
:102B9000108C72B6214D2C68002CFCD0BFF35F8FD7
:102BA0009A422CD8D4080727055D0619012417403E
:102BB000BC402C421FD007210127894609E0D408D8
:102BC000055D06194C4639001440A1400C0029420D
:102BD00011D001329342F2D201204042BFF35F8F05
:102BE00000220E4B1A608CF3108800280FDBC0BC4B
:102BF000B946B046F8BD254310003570EEE7BFF387
:102C00005F8F00232B608CF31088012040424346E5
:102C1000002BECD0089801F095FDC0462C0100D0A7
:102C20000021044B044ABFF35F8F02C39342FAD1E1
:102C30007047C046000100D0800100D0044A1078DF
:102C4000431CDBB2172B00D9102313707047C0460A
:102C5000380E002010B5034B01001800024AFFF7A0
:102C60006FFF10BDF49000202C13021010B5064B1E
:102C7000064C82B00100009318221F232000FFF7AA
:102C800081FF02B010BDC0464C130210F49000202A
:102C900001238340002904D0034A1360034A1360D0
:102CA0007047034A1360FBE780E200E000E100E0C8
:102CB00080E100E001228240034B1B6813405A1E52
:102CC0009341D8B27047C04600E100E00123834041
:102CD000014A13607047C04600E200E0084B103024
:102CE0009B688000C358002B07D0064A00209B1A1F
:102CF0002F229A424041C0B270470020FCE7C046F4
:102D000000ED00E03C0E0020024B10309B6880007C
:102D1000C058704700ED00E070B50D00EFF310866D
:102D200072B60F4A1368002BFCD0BFF35F8F0D4BB8
:102D300010309B6884001B590B4A934203D09D427C
:102D400001D001F01DFD074B9B681D51BFF35F8F44
:102D5000BFF35F8F0022024B1A6086F3108870BDAC
:102D6000240100D000ED00E0CD010010F0B5574681
:102D70004E46DE464546E0B585B006000091170098
:102D8000EFF3108B72B66A4A1368002BFCD0BFF3C6
:102D90005F8F0025674B5D579A46002D00DAA9E04A
:102DA0006B00654C01935B199B009846A146C1449A
:102DB0004B4652469B7910361370604BB6009B68A9
:102DC00099590B1B2F2B33D95D4B994200D0ACE0A6
:102DD000019B42469C465B4B6544AD0063535A4B96
:102DE0000232A218043B9B1A1B05584A5B0D651959
:102DF00013436B80564B0121AB80FF23AB71009BCB
:102E0000EF71AB604B460B4319004C4B9B689951DB
:102E1000BFF35F8FBFF35F8F0022454B1A608BF3C8
:102E2000108805B0F0BCBB46B246A946A046F0BD2E
:102E300001200A008243D3798C46BB4231D84546F3
:102E4000130044491B1B5B415943090D3D4B635320
:102E50003D4B02356519043B5B1B1B053B4D5B0D70
:102E60002B43AA464D466B800425AC465546E044AC
:102E7000131F44441B1B1B055B0D1D434B469971DF
:102E800000999D8099604946DF71334B014313607F
:102E9000BBE75800C01880002018C179B9422FD96B
:102EA00002000623D356002BF3DA02932B4B614624
:102EB0000393131D9A4604235B429C46E14450460B
:102EC0004B461B1A1B055B0D9C46204B9571984683
:102ED0006346404603439380019B5A199200039B2B
:102EE000A418A380029B1C4AA371009B2260E77177
:102EF000A3608AE701F044FC002553465D574FE785
:102F0000908802934005131D9A46031561469C461E
:102F10004046D444634604302018181AE0230005C4
:102F2000400D1B0218430390C5E701F029FC4FE751
:102F3000240100D0DFA302203C0E002000ED00E0C1
:102F4000CD01001000A1FFFF6C0E002000E0FFFF8C
:102F500001BDFFFFAAAA00000148804701BD000093
:102F6000F0B5DE4657464E464546E0B50C0083B008
:102F7000EFF3108872B65D4A1368002BFCD0BFF3E4
:102F80005F8F5B4B5B499A68030010339F00D559F4
:102F90008D4239D0A5424AD0574EAA1B2F2A33D88A
:102FA00001229246824091464846544A1268104097
:102FB00001904846524A1060BFF35F8FEFF30582DD
:102FC0009346002A35D0934201D001F0D9FB2A0064
:102FD00053469A439068844208D175E04B005B18D1
:102FE0009B00F3189868A04234D01A00062151566D
:102FF0000029F3DA844253D0019B002B26D04A46A5
:10300000404B1A603D4B1A60394B9B68DD51BFF352
:103010005F8FBFF35F8F0022344B1A6088F31088F4
:1030200003B0F0BCBB46B246A946A046F0BD0D00B9
:10303000EAE72A0053469A4390688442D6D1062094
:1030400010561300002809DA0D0031E04A462C4BD7
:103050001A60D9E706201856002822DB4200111812
:10306000890074188A46A1689960E179D9710621AE
:1030700061569971002925DBA488F11A640524158D
:1030800054440919E0240905490D2402214399807B
:1030900013181D4A9B001178F31899711070ABE753
:1030A00013005946002914D1FF31917117499180BD
:1030B00015490A789A71164A9B1B5B415A43120DB7
:1030C0000A7099E71349E2E706201056130000281A
:1030D000C4DA114A1149D21A083A5002400D01438C
:1030E00099800F4952080A43DA8085E7240100D00D
:1030F00000ED00E0CD0100103C0E002000E100E0FA
:1031000080E100E080E200E0DFA3022001BDFFFFDC
:10311000AAAA000001BD0000760E002000F0FFFF0B
:1031200000F8FFFF032310B50400074A1840944637
:10313000C0009C43FC3383406444226881409A432E
:1031400013000B43236010BD00E400E070B5EFF303
:10315000058101240443EFF3108C72B6214A1368F1
:10316000002BFCD0BFF35F8F1F4B05001F4AED1AE9
:103170006D416A43120D1E4D8900AE6852B27658F9
:10318000A6421CD00621595691421CD012215956F4
:10319000914222D01E215956914220D02A215956BF
:1031A0000324914210D0134B19781A708171BFF328
:1031B0005F8F00220B4B1A608CF3108870BDAB68D8
:1031C0000D4C5C50EFE700246100091989005B1881
:1031D000FF21997109499980E5E70124F4E7022468
:1031E000F2E7C046240100D03C0E0020AAAA00004D
:1031F00000ED00E0DFA30220CD01001001BDFFFFC4
:10320000054B064A1360064A136053609360D3600F
:1032100013615361936170478080808000E400E017
:1032200004E400E010B5084B084C82B001000093A4
:10323000002205232000FFF7A5FC002801DB1F2347
:10324000181A02B010BDC04668130210E4A3022091
:10325000024B9C4661448900016070474000003485
:1032600010B50400FFF7EAFC01002000FFF7F0FFB3
:1032700001235B426360BFF35F8F10BD10B5040094
:10328000FFF7DCFC01002000FFF7E2FF01235B42B7
:10329000636000232372BFF35F8F10BD10B504007D
:1032A0000120FFF7E3FC034BC3189B002360BFF32F
:1032B0005F8F10BD40000034034B9C466144890081
:1032C0000160BFF35F8F70474000003483680B4894
:1032D00010B58446614462441201090159189B18D3
:1032E0005C684A680120944201D802D00020C0B234
:1032F00010BD1A680B689A42F9D8F7E7FFFFFF0F75
:10330000074810B50268EFF3108172B61368002BFE
:10331000FCD0BFF35F8F07F029FA0020002110BD19
:10332000249D0020F8B5574645464E46DE46E0B59A
:1033300098460CAB1C780DAB1B78070091469A465B
:103340000568002C59D1AC7B002C3BD06600296865
:103350003619033E89194B78AB73002B00D1EB7300
:1033600000238B704B700B702D4BE218BB68120161
:103370009B184A461A6042465A600A9A9A600B9A0B
:10338000DA6000238B704B700B706B7B9B46002BBD
:1033900026D022006B685946A86898475B465B00B8
:1033A0005B442A68033B002812D058469619B07037
:1033B000D118D35C002B00D073705B460C706B731C
:1033C0005C450ED0F0BCBB46B246A946A046F8BD4F
:1033D000D3189C709119925D002A1CD15B460B702A
:1033E0006C734A464346387D00F0D4FB051E0AD173
:1033F0000E9B002BE6D01D70E4E7660029683619A5
:10340000033E8919B0E75346002BF1D121003868FB
:1034100000F0D8FDECE75A705B460B706C73E0E788
:10342000FFFFFF0FF0B5DE4657464E4645460023E8
:10343000E0B58BB00893684B8200D45800239B46BC
:10344000099000F013FB02000B006068EFF3108A94
:1034500072B6564601680029FCD0B246BFF35F8FB2
:1034600021684F7B8C46002F2ED0A5685B49A9466A
:1034700079180901894449460868496805000E0021
:10348000AD1A9E41002E5FDD02000B00099800F08E
:1034900081FB002300229946002306920793002314
:1034A00098466368BFF35F8F5A461A608AF31088A4
:1034B0004346002B12D10028C3D10BB0F0BCBB4651
:1034C000B246A946A046F0BD00230022994600233B
:1034D00006920793002300209846E2E7089B49469E
:1034E00018023843C047626805000E00EFF3108AE7
:1034F00072B61368002BFCD0BFF35F8F002E41DB48
:103500002B00334302D02369002B56D12368D97B8B
:10351000002905D01A68480041185218033A57701C
:103520009A7B002A00D19F73DF73E268013FD35D6D
:103530000133D3555B4623616368BFF35F8F5A46FF
:103540001A608AF310887CE7002E02D1002D00D08B
:103550009AE70021604600F0B3FC4B461A685B68AE
:10356000069207934B469B6898464B46DB68994604
:10357000E368DB19013B1B7808931B0203432361BB
:1035800000208EE72369002BC0D0069A079B80217C
:10359000521BB34109068B4202D30122104B524207
:1035A00000210491013103914946019141462000D7
:1035B00002970091FFF7B6FEBCE700F057FA2A0029
:1035C000330012184B41802109068B42E8D30122B7
:1035D000034B5242E4E7C046109A0020FFFFFF0F62
:1035E000FFFFFF7F10B5144C6368002B04D00A2145
:1035F0001248FFF72DFE10BD2300114A102120684C
:1036000000F07AFB032000F025FA032000F02AFBEB
:1036100003200C4900F078FAFFF710FB0A4B9C4698
:1036200003232375D0231B061B6860446375074B77
:1036300080006060DC60DAE7840E0020249D0020BA
:10364000CD3200102534001040000034109A0020C4
:1036500000487047840E0020F0B557464E46454658
:10366000DE46E0B585B0019310AB1B7806000393EE
:1036700000239A46984600927268EFF3108B72B658
:103680001368002BFCD0BFF35F8F3568AC7B002C38
:1036900000D16EE067002B683F19033FDB195A78B1
:1036A000AA73002A00D1EA73484AA118B268090136
:1036B000521800980199106051600E9991600F990D
:1036C000D16042469A705A701A706B7B9946002BF3
:1036D00000D16BE022006B684946A86898474B46CA
:1036E0005B004B442A68033B002856D04846D71954
:1036F000B870D118D35C002B00D07B704B460C7097
:103700006B734C4553D0F3681B19013B18787368F1
:10371000BFF35F8F42461A608BF310885346002B2D
:1037200008D10002204305B0F0BCBB46B246A94612
:10373000A046F0BD039B002B46D00E9B00200F99A6
:10374000984703000B433FD004000D1E1ADA009A7D
:10375000019B121BAB4100920193802212069342FF
:1037600004D301231A4C5B4200930194039B9A46B5
:1037700082E77368BFF35F8F1C608BF310880120B2
:103780004042D0E700F072F9802200196941120628
:10379000009001919142E9D3E3E7D3189C70D119CD
:1037A000D25D002A00D05A704B460B706C73307D8E
:1037B000009A019B00F0EEF982460028A3D0210078
:1037C000306800F0FFFB9EE70020ACE7FFFFFF0F33
:1037D000FFFFFF7F407D7047F0B54746CE460400AF
:1037E00080B50D0096267642F71736196F4185B0E1
:1037F0008F4215D812D000F039F932003B00121A6E
:103800008B41002B16DC002B39D02000290000F062
:103810006BF905B0C0BCB946B046F0BD8642EAD9E6
:103820000026002700F022F932003B00121A8B41DB
:10383000002BE8DD002302930193124B320000932A
:1038400011483B00FFF708FF0028DEDBB846B14611
:103850000E4F0F4E7B6A984504D8BA6A9145D4D969
:103860009845D2D13268EFF3108172B61368002BFD
:10387000FCD0BFF35F8F300006F044FFEAE7002A78
:10388000C3D0D7E701330010840E0020004005406C
:10389000249D002070B5060000F0E8F8FA2204002C
:1038A0000D00002330000021920003F011FF80235F
:1038B000001969411B06994202D301200249404286
:1038C000FFF78AFF70BDC046FFFFFF7FF0B5EFF343
:1038D0000583CE46474680B505000C0085B0002B19
:1038E00012D02A4A0020536AA34203D3926A0130BD
:1038F000AA4204D305B0C0BCB946B046F0BD1B1BFC
:103900005A1E9341D8B2F5E7214E02930193214B01
:103910000200009330000B00FFF79EFE031EE0DD67
:1039200020BF7168EFF3108772B60A68002AFCD0D6
:10393000BFF35F8FDAB29446FF2230681A40417BB2
:1039400061450FD001688946510088464946904438
:10395000414403398978002904D13269934209D15D
:10396000316107E0F1681B0A8A18013A1278DBB26C
:103970009A4207D07368BFF35F8F00221A6087F303
:103980001088AEE7614600F01DFBF3E700400540FC
:10399000840E002001330010F0B5EFF30582D64607
:1039A0004F4646461000C0B51038EFF3108872B687
:1039B000214C2368002BFCD0BFF35F8F012319003B
:1039C00081401E4D1F006963AA461D4D29601D4D93
:1039D0002E78AC463500C5402F402B4215D05346BB
:1039E0005F6A194B8500EB589F4218D36246174B0C
:1039F0008E43EB581670BFF35F8F0022226088F36E
:103A00001088002B06D0984704E0BFF35F8F276033
:103A100088F31088E0BCBA46B146A846F0BD0C4B0E
:103A200092009C46624413681360BFF35F8F0023CB
:103A3000236088F31088EDE7280100D0004005409E
:103A40003C700540E3A30220D0A10020B08F0020ED
:103A5000D03F054010B5034B01001800024AFFF7A4
:103A60006FF810BDC3A3022084130210034B596AE0
:103A70000A00986A596A8A42FAD1704700400540A4
:103A800070B504000D00174A536A1900966A536A0C
:103A90008B42FAD13000190024184D41AB4216D8A0
:103AA00013D0104B2A005B6A9D4203D90D494B6A23
:103AB0009342FCD3934207D10A4A02E0516A9942E9
:103AC00002D1916AA142F9D370BDA642E9D9054B52
:103AD0005B6A1C005A1CEFD0012201246442E517E6
:103AE0005242E3E700400540064A536A9942FCD837
:103AF00007D1044B02E05A6A914202D19A6A82428B
:103B0000F9D370470040054070B504000D00EFF395
:103B1000108672B61A4A1368002BFCD0BFF35F8F71
:103B2000002D1BD02000FFF7EFF8164981420AD084
:103B30002000FFF7F1F801212000FFF7A9F8012389
:103B4000A340114A1360114BA400E550BFF35F8FEF
:103B500000220B4B1A6086F3108870BD0121A14032
:103B60000A4BA200D5500A4B20001A788A43054917
:103B70001A70FFF7F5F900212000FFF789F8E5E753
:103B8000280100D09939001038600540B08F00201E
:103B9000E3A30220F0B54F46D6464646C0B507001F
:103BA0002B4C616A0D00A66A616AA942FAD18B4268
:103BB00008D805D00120E0BCBA46B146A846F0BD01
:103BC000B242F7D9EFF3108A72B622480168002991
:103BD000FCD0BFF35F8F0125BD401F491C4C8846B8
:103BE000097889462943C9B28C4641466046087027
:103BF000391D890065630A511849B8004350216A8C
:103C00000020294219D0616A0800A66A616A8142CF
:103C1000FAD18B4219D801D1B24216D8CC450BD07B
:103C20000B4B1F221D625D6301233A4093400C4AF7
:103C3000136043464A461A700120BFF35F8F00228B
:103C4000044B1A608AF31088B5E70020F5E7C046F8
:103C500000400540280100D0E3A30220D0A10020AD
:103C600080E200E0EFF3108C72B60A490B68002B7B
:103C7000FCD0BFF35F8F01238340074A07481362DC
:103C800002789A430270BFF35F8F00230B608CF3BE
:103C900010887047280100D000400540E3A30220AF
:103CA00070B506000D00140000291DD0002A12D0A6
:103CB00073688068984762006B0012195B1931685D
:103CC000033A033B002808D08A189570C818CB5CCB
:103CD000002B0BD10470280070BDCB189C70881885
:103CE0008A5C002A05D105702000F5E75370047046
:103CF000F1E75A700570F7E710B583600023CCB286
:103D000043730133426004738373C4730068421CBD
:103D1000012C05D90133DBB2137003329C42F9D177
:103D2000FF230B405A00D318C018002303384370F8
:103D300010BDC04670B505000C1E07D063000168B9
:103D40001B19033BCB185A78002A01D1200070BD03
:103D5000500080180338091800204E784870210060
:103D600058702800FFF79CFF310004002800FFF77F
:103D7000E1FF0600002C20D00028E7D0320021000F
:103D80006B68A86898477200630092191B1929682C
:103D9000033A033B002808D08A189470C818CB5CFB
:103DA000002B00D053700670D0E7CB189E70881897
:103DB0008A5C002A00D05A7004703400C6E7C046FE
:103DC000F0B557464546DE464E46E0B50D006F005D
:103DD00001687F19033F0400C85D83B00192CA19CE
:103DE000002850D043001B18033BCB185E78B44624
:103DF000002E1AD1019E002E42D0E67B002E04D068
:103E000073009B19CB18033B5D70A37B002B00D183
:103E1000A573E57300282FD10023537003B0F0BCC5
:103E2000BB46B246A946A046F0BD72006244033AC2
:103E30008A1851788846002151708946597032009D
:103E400001002000FFF72CFF43468246002B07D0DD
:103E50005B0021684344033BCB185A78002A16D1F3
:103E6000424651462000FFF71BFF2168019BCA19FB
:103E7000002BC2D10028CFD043001B18033BCB1826
:103E800000219970C8E7019B002BB6D1C4E7500010
:103E90008018033809184878834648464870587097
:103EA00041462000FFF7FCFE594680462000FFF700
:103EB00041FF414602002000FFF7F2FE8046CFE7B7
:103EC000F0B557464546DE464E46E0B583B0019113
:103ED000457B04006F0000687F19033FC15DC21974
:103EE000002952D04B005B18033BC3185E78B446E0
:103EF000002E1CD1019E002E44D0E67B002E04D063
:103F000073009B19C318033B5D70A37B002B00D18A
:103F1000A573E573002931D1002328005370617324
:103F200003B0F0BCBB46B246A946A046F0BD720045
:103F30006244033A821850788046002050708146CF
:103F4000587032002000FFF7ABFE43468246002B3C
:103F500007D05B0021684344033BCB185A78002A02
:103F600017D1424651462000FFF79AFE019B0100FF
:103F70002068C219002BC0D10029CDD04B005B189E
:103F8000033BC31800209870C6E7019B002BB4D1F7
:103F9000C2E750008018033809184878834648461D
:103FA0004870587041462000FFF77AFE5946804617
:103FB0002000FFF7BFFE414602002000FFF770FE21
:103FC0008046CEE770B5050000292CD0437B8B429C
:103FD0002ED04C0000686418033C0419A278002A13
:103FE00021D053009B18033BC25CC6188A4202D101
:103FF0001BE0002A08D053009B18033BC3185A78D3
:104000008A42F6D162785A70002301222800A370F8
:104010006370FFF7D5FE697B02002800FFF740FEC2
:104020006873012000E0002070BD63783370EBE717
:1040300001221900FFF7C4FEF2E7C046F8B5CE46EC
:104040004746040080B506200D0000F021FA061E48
:1040500053D0534B5349E3185A1E93418022120404
:1040600094465B429B0D504A9B05634413604F4A44
:10407000136018008A689043FBD1494B4C4AE318FF
:1040800059424B4180215B0049000620995200F0C3
:10409000FFF92900C00001F0B5FFC30932D1402269
:1040A000012190466162A362266BF30736D4270094
:1040B0008025E36A00232C376D013D432B600620E9
:1040C000266300F0E5F94146800001F09BFF236B79
:1040D00006009846DB073BD46023E26A5A400E3361
:1040E00013402B6043462363802310229B013B43F4
:1040F0001A60304B23630323A3643000C0BCB9466D
:10410000B046F8BD2C4A93423FD900232B492C4A94
:104110006162A362266B9046F307C8D52200C023D4
:1041200030329B011343234A06201A60656AA36A52
:10413000AD01ED1800F0ACF9224901F063FFAD02CA
:104140000100280001F05EFF0021FFF799FCAEE7B7
:104150002200C02330329B011343164A06201A6006
:10416000636AA26A9B019946914400F091F94B461B
:1041700014499B02994601F045FF0100484601F0B1
:1041800041FF0021FFF77CFCA6E77F2299018846CA
:1041900002400132520819009044130082E7C046E1
:1041A0000080FCBF00C0004000E0004000F0004084
:1041B00054A2002001030000FEFF0000FFFF0000EA
:1041C000C0FF3F004E0E000010B50C2082B000F082
:1041D000B7F9FEF7ADFC002810D08B4B8B488B490C
:1041E0008B4A186059609860D9601861596198616C
:1041F000D961186259625A6202B010BD854CA0673D
:1042000000F0F4F90122844B1A60636C012BFCD19D
:104210000322824B1A607F4A936B012BFCD101333E
:1042200001217F4A7F480093043300F037F90523CA
:104230007D4A009301217D4800F030F97C4B5A689B
:10424000FF2A02D8802252005A608022734B6E4CA3
:1042500012011A602169002907D0606901F0D2FEBD
:10426000013043001B18033BFDD2E022704B714824
:1042700019680A40026002221968514001320A405E
:10428000042102609A681142FCD080216A4A090127
:104290001160802252005A60684B2361684B596854
:1042A000FF2900D85A60032201215B4B1A60644A3F
:1042B00093681942FCD0E023106803406148036012
:1042C000126803234A40022113405D4A0360936849
:1042D0001942FCD080215C4B0901196080215B4BA5
:1042E0004900516063615A4B5A68FF2A00D85960EF
:1042F0008022584B12011A60E169002907D06069D9
:1043000001F080FE013043001B18033BFDD2E02387
:104310004F4A11680B4050490B6080214F4B0901F7
:1043200019608021394B49005160E3614C4B5A6858
:10433000FF2A00D8596080224A4B12011A60216A74
:10434000002907D0606901F05DFE013043001B18B1
:10435000033BFDD2E023424A11680B4042490B6007
:104360008021424B0901196080235B005360802249
:10437000264BD20223623E4B5968914200D25A60CA
:1043800080223C4B12011A60616A002907D06069E3
:1043900001F038FE013043001B18033BFDD2E0233F
:1043A000334A11680B4034490B608021334B0901BB
:1043B00019608023DB025360154B6362304B5A68EF
:1043C000FF2A02D8802252005A6080222D4B12010F
:1043D0001A60A169002907D0606901F013FE01305D
:1043E00043001B18033BFDD2E023254A11680B4014
:1043F00025490B608021254B0901196080235B0052
:104400005360124BA361F7E6A0400020006CDC0271
:104410001BB70000008000403CB0004030B00040BE
:10442000002F685900800240008C864700C002407F
:10443000308000403090004030A00040001BB700AA
:104440003C8000403C9000403CA000404059730735
:104450005480004054B000405490004054A00040AC
:104460006080004060B000406090004060A000406C
:104470006C8000406CB000406C9000406CA000402C
:104480004880004048B000404890004048A00040AC
:10449000014B8000C0587047A0400020F8B50400D0
:1044A00022481E0017000D0001F0ACFD010038008D
:1044B00001F0A8FD069B36041B031E432368002B56
:1044C00022DB1B4B1B49E3185A1E934180229201A9
:1044D00094465B421B0B184A1B0363441360174A44
:1044E00013601F008A689743FBD1C022231D9201ED
:1044F0001A4321232560A06013602368002BFCDA97
:104500000823E6601360F8BD3F2322681340AB42E6
:10451000D7D1A3681B051B0D8342D2D1EE22E368DD
:10452000D2021340B342CCD1EDE7C046001BB70026
:104530000040FDBF00C0004000E0004000F000402F
:104540008023024A9B000343D362704700800540EA
:1045500010B580241C4BE4051C6000281AD00123F0
:104560001A4C18431A4BDC611A4C44401C625962C5
:1045700098628021144BC9051960174817490860D3
:10458000E021C9041960002A07D18022144B1206C9
:104590001A6010BD0E4BD861EBE753019B1A9B00CC
:1045A0009A18802312015B049A4209D213000D4924
:1045B0000B60074B5A608022094BD2051A60E8E76E
:1045C000094B1A00F3E7C04600B00540D3C007B05E
:1045D000008005402D3FF84FFCFF010008200140FE
:1045E00000A00540BC990020FFFFFF00AA23064A57
:1045F0001B0113602F230549D360054B19605368D5
:10460000002BFCDA7047C0460040024000B0FA00C0
:10461000006002402C4B2D4A70B51A602C4A2D4B7D
:104620002D491A6014008B689C43FBD12B4D2C4EF6
:10463000B54208D2013E761BB60808CD9847230044
:104640000134B342F9D1FFF7BFFD264A214B1A606E
:10465000214A9368DB43DB01DD09002BF9D14022BD
:10466000214B224C224E9A675A671A67DA66B44287
:1046700008D223682000002B20D00C34FEF7FEFD6A
:10468000B442F6D31B4C1C4EC022B168200003F08C
:10469000F1F9B460FEF7C4FAFEF7B2FDFEF7A2FF2F
:1046A000164C174EB44208D2013E361BB60808CC51
:1046B00098472B0001359E42F9D170BD0834FEF7B2
:1046C000CFFDB442D5D3DDE700E00040BFCDFBFE17
:1046D000FE7F3C0000F0004000C000407040002021
:1046E00080400020FFFFFF0100F0014060400020FB
:1046F000704000200000002000ED00E0804000201D
:104700009C40002000BEFDE7094A03001068002815
:1047100005D00849C3188B4207D813607047064874
:104720000449C31810608B42F7D901204042F5E7D5
:10473000A095002000000420E8A3022010B5FFF798
:10474000E1FFC0460FB400B5084883B003F068FA33
:10475000049B002B07D005A91800019101F0D2FBA2
:10476000034803F05DFA0120FFF7CCFFA813021005
:10477000E812021010B50148FFF7E4FFB813021069
:1047800010B50148FFF7DEFFC81302109A4200D2AD
:10479000885470477047C046F8B55746DE464E46C7
:1047A0004546E0B599460A9B07009A460D9B884608
:1047B00093460B9C9B073BD10C9B9C423DD21E1BFE
:1047C0000B9415000C005E442A004B460135210075
:1047D0002020B847B542F7D1A0460B9C002C20D032
:1047E000454636195346321B013C185D29004B469D
:1047F000B847002CF6D12B00350098460D9B9B073F
:104800000FD55B46EC1A0C9BA3420AD94646984644
:104810002A004B46310020200134B8470135444579
:10482000F6D32800F0BCBB46B246A946A046F8BD68
:1048300016001500002CD3D1E0E71600002CCFD1D4
:104840001500EEE7F0B54F464646D646C0B584B0F3
:1048500098460EAB1B7894469946129B0D9C109F70
:10486000119E9A0725D4002E65D1BC4221D2012287
:104870001A409246202C00D1E9E00C9A551E3022B5
:1048800002E0202C00D17BE001342A55A742F8D861
:104890005246002A0DD0B4420BD20C9A551E30223B
:1048A000202C02D171E0202C2DD001342A55B442A5
:1048B000F9D1DA063CD55A052ED4002C28D10F9A0E
:1048C000102A00D1B6E0022A00D1BCE030220C9CB4
:1048D000227001244A46002A65D15A0700D499E083
:1048E0002B220C9D2A55013403930C9B62460093A6
:1048F000029643460194FFF74FFF04B0E0BCBA466E
:10490000B146A846F0BD2024DA06EDD55A0503D4F9
:10491000A74266D0B44264D00F9A102A71D0022AFE
:1049200057D0202CE0D02200013430250C9FBD54FC
:10493000202CD9D0CEE7012215001D40AA461A42EC
:1049400036D04A46002A4AD10C321A4247D1BC42DC
:10495000A1D2202C91D1202E17D82024DA06C3D53D
:104960005A051BD4202F01D0202ED5D11F220F9DF8
:10497000102D6FD0022DD8D162250C9FBD54D0E7E9
:104980005246002A79D0202EBDD92024DA06ABD594
:104990005A0503D4202FE9D0202EE7D00F9A102AF1
:1049A000A2D12024A0E72D220C9D2A5501349BE79B
:1049B000BC4200D37DE7202C00D05EE7DA06F0D5BC
:1049C0005A05EED4202F62D0202EEAD134001F22C7
:1049D000CDE7202C00D187E722000134CCE7013E4F
:1049E000B5E7621E012CC2D10F9A102A00D06AE7E7
:1049F0009A063BD558220C9C2270283A62700224F9
:104A000068E79A060ED4202CCBD078220C9D2A552C
:104A1000013486E71A0700D466E720220C9D2A5548
:104A2000013461E7202CBCD058250C9A121915705E
:104A3000013476E79A0608D558220C9C2270302261
:104A40006270022446E76032F7E77822F5E7002A31
:104A500083D1B3E7A21E013C9D0603D478250C9FA9
:104A6000BD5460E758250C9FBD545CE778220C9C30
:104A70002270483A627002242CE7DA0600D433E749
:104A80005A058BD4202F00D044E71F226FE73C004B
:104A90001F226CE710B5002800D110BD03F074F898
:104AA000FBE7C0460B0010B5002802D049681B6820
:104AB000984710BDF0B557464E464546DE46E0B530
:104AC00099B08246894690460893229A239B10000B
:104AD000190001F06CFD002800D0CDE02298239948
:104AE0000122D94B524201F05DFD002800D0C3E005
:104AF000229823990122D54B524201F045FD00280E
:104B000000D0B9E0229823990022002301F03CFD57
:104B1000002800D0F1E1229E239F8023269ADB000B
:104B20001A400D92269A1A4201D10623249380231B
:104B3000269A1B011A403B0093460996334300D046
:104B4000B3E0002A00D0C2E1002300240A930B94B2
:104B5000002304250993259B0024AB4200D95C1B4C
:104B60000223269A1A400C92269A134203D06B42D3
:104B70006B415B421C40099B002B07D00A9A0B9BA0
:104B80003000390001F097FC06000F0022982399AD
:104B90000022002301F0F8FC002803D08021090640
:104BA0007B181F00269AAA4B009601971340089E77
:104BB0000493249B03940293424633004946504693
:104BC00000F0AAF90400002D67D02020269A49465B
:104BD000024013005A4253415B42621C18400A9241
:104BE000330022004530D047099A6F1ED317D418DE
:104BF0005C40D30F9B46002501E0202D13D008AA6E
:104C000094461F23200063440A2101355E1901F0F8
:104C1000F9F93031317020000A2101F0F3F9260052
:104C20000400092EE9D805230693002304930A33D0
:104C300003935B46089E029310AB0A9A0093494681
:104C40003300504605970195FFF7FCFD0C9A0400D0
:104C5000002A22D04246851A259AAA421DD9B0467A
:104C60005746160022004346494620200135B847E2
:104C70000134AE42F6D810E0269B42460493259BB1
:104C800049460393249B50460293229B239C009306
:104C90000194089B00F040F90400200019B0F0BC1A
:104CA000BB46B246A946A046F0BD6A4B78009C467A
:104CB000400D604401F08EFC674A684B01F019FC1E
:104CC000674A684B01F0EEFB674A3B031B0B1A4334
:104CD00004000D0009981100644B002201F0D9FB7B
:104CE000634A644B01F005FC02000B002000290020
:104CF00001F0D8FB01F086FC099001F06BFC5E4AE4
:104D00005E4B04000D0001F0F4FB00225C4B01F04F
:104D1000C9FB01F077FC5B4A5B4B29000C9020003B
:104D200001F0E7FB04000C980D0001F053FC574A1A
:104D3000574B01F0DEFB02000B002000290001F0C0
:104D4000A8FB04000D0002000B000A940B9501F073
:104D5000D0FB04000D000A980B9902000B0001F033
:104D6000A1FB00220E900F914A4B2000290001F078
:104D7000A2FB0022484B01F095FB02000B00200033
:104D8000290001F098FB0022444B01F08BFB02004C
:104D90000B002000290001F08EFB0A9A0B9B0D00EE
:104DA00080210400C905002001F073FB02000B0004
:104DB0002000290001F076FB02000B000E980F99ED
:104DC00001F079FB0022284B01F06CFB344B0C9C6A
:104DD0009C4664442305002201F08BFB04000D0077
:104DE00002000B00300039000A940B9501F0CCFB57
:104DF00000285DD123002A00C625099963318D4220
:104E0000AD4159466D420435002900D1A3E6134354
:104E100063D030003900234A234B01F0BBFB00284C
:104E200007D0002230003900204B01F0ADFB0028F4
:104E300053D1249B002B00D18DE60D9B5A1E93412C
:104E4000249AD31A249386E6FFFFEF7FFFFFEFFF3C
:104E5000FFF7FFFF01FCFFFFFB799F501344D33F97
:104E6000B3C8608B288AC63F0000F03F0000F83FBF
:104E700061436F63A787D23F71A379094F930A40BB
:104E80000000E03F1655B5BBB16B0240EF39FAFEAA
:104E9000422EE63F00002C40000024400000184055
:104EA000FF0300002D431CEBE2361A3F80842E41A5
:104EB000099B0022013B09932000164B290001F0B9
:104EC000FAFA0A00010003000A910B9294E700230A
:104ED00000240A930B9400230993249A099B9A4275
:104EE00014DDD31A013B24938023269ADB001A4356
:104EF00000230025269209932DE68022120694466F
:104F0000229B1E00239B63441F0006E6002324937C
:104F1000EAE7C04600002440F0B54546DE464E466E
:104F20005746E0B595B08B46904699461E9A1F9B12
:104F30000A9019001000209D01F039FB002800D0D4
:104F4000B0E11E981F990122C74B524201F01CFB91
:104F5000002800D037E11E981F990122C34B52420E
:104F600001F020FB002800D0A7E01E981F99002226
:104F7000BF4B01F017FB002800D088E01E981F9956
:104F80000022BC4B01F000FB002800D07FE01E98FF
:104F90001F990022002301F0F7FA002800D0FAE060
:104FA00000230B938023229C229ADB001C401A4290
:104FB00000D102E1092D00D87CE106A98C462C0025
:104FC000172200233021093C62440133D154EF1AE7
:104FD000202B00D132E1A342F7D10022A44B06924C
:104FE00007931E981F9901F00DFB050001F0F2FADE
:104FF00002000B001E981F9901F04BFA069A079BBE
:1050000001F077FA0890099101F020FB060001F009
:10501000DDFA02000B000898099901F03AFA002223
:10502000954B0890099101F0BDFA002800D1D2E01B
:105030000136300001F0CAFA069A079B01F0AAFA7D
:10504000002801D000260135AA46002F00D098E0A4
:10505000280001F0BFFA02000B001E981F9901F012
:1050600018FA854B002206000F0001F08DFA0CABF8
:105070009A46002845D10022300039007E4B01F0CD
:1050800091FA00283DD1EB073BD5013539E0229B51
:1050900042460493219B594603930A981E9B1F9CEA
:1050A0000295009301944B46FFF704FD15B0F0BC48
:1050B000BB46B246A946A046F0BD229B5B0767D41B
:1050C00003226E4B22990192039121990291009340
:1050D00042464B4659460A98FFF75EFBE6E706AAAA
:1050E00094461723280063440A2101341E1900F056
:1050F00061FF3031280031700A2100F05BFF051E8E
:1051000076D0202CEBD10323229A1340012B1DD102
:10511000219B002B1AD00B9B002B00D0BBE0229AC6
:105120000C33134200D0B6E0219BA34200D887E0A5
:1051300006AB9C4617223023624404E021990134D7
:1051400013558C4259D0202CF8D12024229B019455
:105150000393219B02935346B9E706AA944617236B
:105160000A216344300001341D1900F04BFF303137
:10517000297030000A21013F00F044FF092E46D972
:105180000600202CE9D155460CAB20249A46B8E7FE
:1051900004223B4B96E71E9A1F9B0020002101F042
:1051A00078F901230B938023229C229ADB001E9026
:1051B0001F911C401A4200D0FCE60022314B06270A
:1051C000069207930DE7229B0393219B02930423EE
:1051D00001932D4B7BE7002208980999264B01F09B
:1051E000D3F9002800D02FE7002E4FD101362BE74E
:1051F0000323229A1340012B66D0202CA6D00B9BB0
:10520000002B1FD02D235246135501349EE75546DF
:10521000202CB9D030233A19002F08D0172006A926
:10522000013409180B55202CAED09442F6D10CABAA
:105230009A462E2352461355013462E72024CCE6C9
:10524000202C83D0229B5B0708D4229B1B0700D411
:105250007CE7202352461355013477E72B2352462F
:105260001355013472E7C046FFFFEFFFFFFFEF7FEA
:1052700065CDCD4165CDCDC10000E03FDC1302100E
:10528000D413021080842E41E4130210F30700D4DB
:10529000DAE60136D8E6219B013B2193A34200D9EF
:1052A00046E7AAE7229B0393219B029303230193E2
:1052B000074B0CE7074BEA009B185C681B682F0044
:1052C0000693079400248CE6219B002B95D022E7BF
:1052D000E0130210C8240210F0B55746DE464E46D1
:1052E0004546E0B5A5B01F002E9B91460D93CA4AD6
:1052F000CA4B82468B461A60002900D129E200235E
:1053000038789846002800D12BE2C54B44460C93D0
:10531000C44B55464E460E930AE0631C9846220045
:1053200033005946A84744463878002800D187E022
:1053300001372528F1D108239A46043B9946023BC0
:105340009846013B00229C460B943878791C030058
:10535000203BDBB2102B03D80C9C9B00E3589F46EC
:105360000300303B0B9C0B92092B3AD90023984643
:105370002A2800D1DDE000239A462E284BD00300D6
:10538000683BDBB2122B1ED80E9A9B00D3589F4667
:1053900063460F001A43D8E743460F001A43D4E789
:1053A0004B460F001A43D0E710230F001A43CCE7F7
:1053B00053460F001A43C8E780235B000B9A7878A6
:1053C0001A430B9201310F0067284FD82428A4D923
:1053D0000300253BDBB2422B9FD893499B00CB585F
:1053E0009F46002398460B9B47469C4600E00131B0
:1053F000BB00DB195B001F180878303F0300303B0F
:10540000092BF4D963460B930023B8469A460F0044
:1054100001312E28B3D180200B9AC00002430B9299
:1054200030225242944678780B0084446246092A1E
:1054300000D8AAE12A2800D1B9E10F0001319EE786
:10544000A046AA46B146C84503D301235B424B445C
:1054500098464B46424659460020D047200025B08A
:10546000F0BCBB46B246A946A046F0BD0100693972
:10547000C9B20F2900D950E701238B409C466B4BE2
:10548000994663464A4613400F9362464B461A427A
:1054900000D068E10A2956D0072900D03DE70D9BCE
:1054A00002CB9846002900D092E10B9B10211A00F4
:1054B0008A43100011310843814680201A00C00041
:1054C0000240110003421CD114AB9C461F220F2343
:1054D00062440D959C4615000F9B0B9402E0202B17
:1054E0000CD0110064460C4020003730092C00D845
:1054F00007380133E8540A090F29F0D80B9C0D9D99
:105500000F934B46082206935346059208320392A6
:10551000002204930F9B029201931CAB2200009384
:10552000594633002800FFF78DF9434604000D93D8
:10553000FAE60D9B04CB9046002A79DB78780D9330
:105540000F00013117E70D9B02CB14930B789C469B
:1055500018005346002B00D134E1002815D05346E3
:10556000013B013399460D940B9C89444A460B003C
:10557000A14601E0934203D05C780133002CF9D1BD
:105580004A465B1A0D9C0B920F938023DB009946D1
:105590000B9A13400D934B461A4204D00F9B534570
:1055A00001D953460F93022399460B9A13400B934C
:1055B0004B46134200D1F5E16346002B00D1D6E102
:1055C0000D9B002B00D182E10B1BD14631009A4686
:1055D0003B00A1442E005F464D4622009B46894673
:1055E00009E04B463900541CB0475346185D00286B
:1055F00000D192E122009542F3D14B465A46A9468A
:10560000BB46350017001E004C460B9B002B00D0FC
:10561000ADE1149B0D9387E6D9520010B899002094
:10562000282302106C230210B823021041900000BE
:105630000B9A283802430B924246524278789046A1
:105640000F000D93013196E678786C2800D15DE16A
:1056500080230B9A5B001A430B920131B3E680233F
:105660009B00ABE67878682800D148E180230B9A4C
:1056700001311A430B92A6E6672800D1B2E0472811
:1056800000D11AE1452800D11CE10B9A07210492B0
:1056900042460D9B0392073352468B4319000292F8
:1056A0000CC92800009201930D9122003300594645
:1056B000FFF700FA040037E6462800D18DE00B9A88
:1056C0000721049242460D9B0392073352468B43B7
:1056D000190002920CC92800009201930D9122003A
:1056E00033005946FFF718FC04001DE6631C98467A
:1056F0002200330059462520A847444614E60D9B56
:1057000004330F93631C99460B9B9A0700D40AE15C
:105710000D9B2200187859463300A847434644445D
:10572000012B00D86FE1B0462E0025004C46B9464B
:105730005F4622004346013439002020B047AC4286
:10574000F7D12C00BB4635004F4646460F9B0D93C4
:10575000EAE5D64B38789A4600239846002800D0D0
:10576000D3E500246FE66F2842D000D8FDE1102376
:10577000782800D19BE00B9A9A430B920A239C460F
:10578000002314930A330F9338E057460B9AB9005D
:10579000C919490001330F181878303F010030391A
:1057A0000929F4D9BA460B921F00591CE7E50D9B55
:1057B000B87804CB0237D143C9170A4092460D93FB
:1057C000791CDCE5002800D1DFE602235B42C8E655
:1057D00021200B9A0243914676E620230B9A1A4326
:1057E0000B926CE780230B9A1B011A430B924CE738
:1057F00008239C460023149308330F930B988023AF
:105800000200DB001A4011000200184200D080E0C4
:105810000C239A431000802302009B001A400B9235
:10582000184200D0F1E0802302005B001A4091464C
:105830000D9A04321492184200D0C3E2430600D5F8
:10584000D7E0030600D421E30D9B1B880993002BAE
:1058500000D02DE110339843002900D128E1002326
:10586000994643460593534604930F9B0690039332
:10587000002302934B4601931CAB22000093594630
:1058800033002800FEF7DEFF0400C2E6582809D0E6
:10589000622800D0E3E202239C46002314930233E3
:1058A0000F93ABE720230B9A1A430B92103B9C46B5
:1058B0000023149310330F93A0E780230B9A1B014E
:1058C0001A430B9220230B9A1A430B92DDE60B1B13
:1058D0009A460F9B99463B0037005E469B46220046
:1058E0003B003100A84753460134185D0028F6D12B
:1058F0004B460F935B46B3463E001F0085E6C02330
:105900000B9AB8781A430B92F91C5CE5C0239B00F4
:10591000F6E70D239A4310007DE75B463500BB4652
:105920004E461F0071E64346012B66D9631E434471
:1059300032002E001D003B00A2465F4691469B466A
:1059400022004B46013439002020B047AC42F7D149
:105950005B463500BB464E46A14654461F000D9B94
:105960004A461878594633004444A847EEE60F9B50
:10597000A146984500D84CE64444E41AB0462E00AF
:1059800025004C46B9465F462200434601343900A3
:105990002020B047AC42F7D12C00BB4635004F4623
:1059A000464636E60F98804500D873E24346E21833
:1059B000131A32002E001D003B0091465F469B46A5
:1059C0000F9122004B46013439002020B047AC42F1
:1059D000F7D15B46BB461F0043460F9901330F9337
:1059E0000B7835009C464E466046002800D0E7E51F
:1059F0000FE60D9B1B78099329E70D9B2200187871
:105A000059463300A8474C46A0E60D9AFA3BFF3BA7
:105A100007329A430133994691444B460D931368DC
:105A2000526815921A4306D110329043002209920F
:105A3000002900D083E06122810600D54122D2B244
:105A40000A9214AA91460A9A00210A3A0B924246F7
:105A50001792524618925A46B24609911E001F31BB
:105A6000149B4944BB4616941A95002467469846F1
:105A70008946159D19901B920AE03032D2B24B46EE
:105A800001341A55A8454CD0202C4CD006000D00EE
:105A90003A0000233000290000F0F2FAD2B2092ABD
:105AA000EBD90B9B9C466244D2B2E8E795470010C5
:105AB0006123820600D54123DBB20A3B0B934346A8
:105AC00014A91F228C46159353466244B2460D9486
:105AD00017974C468046A9461700099D0F9E1693BE
